{
  "_format": "hh-sol-artifact-1",
  "contractName": "ChainBazzar",
  "sourceName": "contracts/ChainBazzar.sol",
  "abi": [
    {
      "inputs": [],
      "stateMutability": "nonpayable",
      "type": "constructor"
    },
    {
      "anonymous": false,
      "inputs": [
        {
          "indexed": false,
          "internalType": "address",
          "name": "buyer",
          "type": "address"
        },
        {
          "indexed": false,
          "internalType": "uint256",
          "name": "orderId",
          "type": "uint256"
        },
        {
          "indexed": false,
          "internalType": "uint256",
          "name": "itemId",
          "type": "uint256"
        },
        {
          "indexed": false,
          "internalType": "string",
          "name": "paymentId",
          "type": "string"
        }
      ],
      "name": "Buy",
      "type": "event"
    },
    {
      "anonymous": false,
      "inputs": [
        {
          "indexed": false,
          "internalType": "string",
          "name": "name",
          "type": "string"
        },
        {
          "indexed": false,
          "internalType": "uint256",
          "name": "price",
          "type": "uint256"
        },
        {
          "indexed": false,
          "internalType": "uint256",
          "name": "quantity",
          "type": "uint256"
        }
      ],
      "name": "List",
      "type": "event"
    },
    {
      "inputs": [
        {
          "internalType": "uint256",
          "name": "_id",
          "type": "uint256"
        },
        {
          "internalType": "string",
          "name": "_paymentId",
          "type": "string"
        }
      ],
      "name": "buy",
      "outputs": [],
      "stateMutability": "nonpayable",
      "type": "function"
    },
    {
      "inputs": [
        {
          "internalType": "uint256",
          "name": "",
          "type": "uint256"
        }
      ],
      "name": "items",
      "outputs": [
        {
          "internalType": "uint256",
          "name": "id",
          "type": "uint256"
        },
        {
          "internalType": "string",
          "name": "name",
          "type": "string"
        },
        {
          "internalType": "string",
          "name": "category",
          "type": "string"
        },
        {
          "internalType": "string",
          "name": "image",
          "type": "string"
        },
        {
          "internalType": "uint256",
          "name": "price",
          "type": "uint256"
        },
        {
          "internalType": "uint256",
          "name": "rating",
          "type": "uint256"
        },
        {
          "internalType": "uint256",
          "name": "stock",
          "type": "uint256"
        }
      ],
      "stateMutability": "view",
      "type": "function"
    },
    {
      "inputs": [
        {
          "internalType": "uint256",
          "name": "_id",
          "type": "uint256"
        },
        {
          "internalType": "string",
          "name": "_name",
          "type": "string"
        },
        {
          "internalType": "string",
          "name": "_category",
          "type": "string"
        },
        {
          "internalType": "string",
          "name": "_image",
          "type": "string"
        },
        {
          "internalType": "uint256",
          "name": "_price",
          "type": "uint256"
        },
        {
          "internalType": "uint256",
          "name": "_rating",
          "type": "uint256"
        },
        {
          "internalType": "uint256",
          "name": "_stock",
          "type": "uint256"
        }
      ],
      "name": "list",
      "outputs": [],
      "stateMutability": "nonpayable",
      "type": "function"
    },
    {
      "inputs": [],
      "name": "name",
      "outputs": [
        {
          "internalType": "string",
          "name": "",
          "type": "string"
        }
      ],
      "stateMutability": "view",
      "type": "function"
    },
    {
      "inputs": [
        {
          "internalType": "address",
          "name": "",
          "type": "address"
        }
      ],
      "name": "orderCount",
      "outputs": [
        {
          "internalType": "uint256",
          "name": "",
          "type": "uint256"
        }
      ],
      "stateMutability": "view",
      "type": "function"
    },
    {
      "inputs": [
        {
          "internalType": "address",
          "name": "",
          "type": "address"
        },
        {
          "internalType": "uint256",
          "name": "",
          "type": "uint256"
        }
      ],
      "name": "orders",
      "outputs": [
        {
          "internalType": "uint256",
          "name": "time",
          "type": "uint256"
        },
        {
          "components": [
            {
              "internalType": "uint256",
              "name": "id",
              "type": "uint256"
            },
            {
              "internalType": "string",
              "name": "name",
              "type": "string"
            },
            {
              "internalType": "string",
              "name": "category",
              "type": "string"
            },
            {
              "internalType": "string",
              "name": "image",
              "type": "string"
            },
            {
              "internalType": "uint256",
              "name": "price",
              "type": "uint256"
            },
            {
              "internalType": "uint256",
              "name": "rating",
              "type": "uint256"
            },
            {
              "internalType": "uint256",
              "name": "stock",
              "type": "uint256"
            }
          ],
          "internalType": "struct ChainBazzar.Item",
          "name": "item",
          "type": "tuple"
        },
        {
          "internalType": "uint256",
          "name": "quantity",
          "type": "uint256"
        },
        {
          "internalType": "string",
          "name": "paymentId",
          "type": "string"
        },
        {
          "internalType": "string",
          "name": "status",
          "type": "string"
        }
      ],
      "stateMutability": "view",
      "type": "function"
    },
    {
      "inputs": [],
      "name": "owner",
      "outputs": [
        {
          "internalType": "address",
          "name": "",
          "type": "address"
        }
      ],
      "stateMutability": "view",
      "type": "function"
    },
    {
      "inputs": [
        {
          "internalType": "address",
          "name": "buyer",
          "type": "address"
        },
        {
          "internalType": "uint256",
          "name": "orderId",
          "type": "uint256"
        },
        {
          "internalType": "string",
          "name": "newStatus",
          "type": "string"
        }
      ],
      "name": "updateOrderStatus",
      "outputs": [],
      "stateMutability": "nonpayable",
      "type": "function"
    },
    {
      "inputs": [],
      "name": "withdraw",
      "outputs": [],
      "stateMutability": "nonpayable",
      "type": "function"
    }
  ],
  "bytecode": "0x60806040523480156200001157600080fd5b506040518060400160405280600b81526020017f436861696e42617a7a6172000000000000000000000000000000000000000000815250600090816200005891906200031a565b5033600160006101000a81548173ffffffffffffffffffffffffffffffffffffffff021916908373ffffffffffffffffffffffffffffffffffffffff16021790555062000401565b600081519050919050565b7f4e487b7100000000000000000000000000000000000000000000000000000000600052604160045260246000fd5b7f4e487b7100000000000000000000000000000000000000000000000000000000600052602260045260246000fd5b600060028204905060018216806200012257607f821691505b602082108103620001385762000137620000da565b5b50919050565b60008190508160005260206000209050919050565b60006020601f8301049050919050565b600082821b905092915050565b600060088302620001a27fffffffffffffffffffffffffffffffffffffffffffffffffffffffffffffffff8262000163565b620001ae868362000163565b95508019841693508086168417925050509392505050565b6000819050919050565b6000819050919050565b6000620001fb620001f5620001ef84620001c6565b620001d0565b620001c6565b9050919050565b6000819050919050565b6200021783620001da565b6200022f620002268262000202565b84845462000170565b825550505050565b600090565b6200024662000237565b620002538184846200020c565b505050565b5b818110156200027b576200026f6000826200023c565b60018101905062000259565b5050565b601f821115620002ca5762000294816200013e565b6200029f8462000153565b81016020851015620002af578190505b620002c7620002be8562000153565b83018262000258565b50505b505050565b600082821c905092915050565b6000620002ef60001984600802620002cf565b1980831691505092915050565b60006200030a8383620002dc565b9150826002028217905092915050565b6200032582620000a0565b67ffffffffffffffff811115620003415762000340620000ab565b5b6200034d825462000109565b6200035a8282856200027f565b600060209050601f8311600181146200039257600084156200037d578287015190505b620003898582620002fc565b865550620003f9565b601f198416620003a2866200013e565b60005b82811015620003cc57848901518255600182019150602085019450602081019050620003a5565b86831015620003ec5784890151620003e8601f891682620002dc565b8355505b6001600288020188555050505b505050505050565b611cc580620004116000396000f3fe608060405234801561001057600080fd5b50600436106100935760003560e01c80638da5cb5b116100665780638da5cb5b146101245780638de83a7b14610142578063b7dc3b181461015e578063bfb231d21461017a578063eea8a7e8146101b057610093565b806306fdde03146100985780633ccfd60b146100b6578063713d856b146100c0578063793b8c6d146100f0575b600080fd5b6100a06101cc565b6040516100ad91906110c1565b60405180910390f35b6100be61025a565b005b6100da60048036038101906100d59190611155565b61034f565b6040516100e7919061119b565b60405180910390f35b61010a600480360381019061010591906111e2565b610367565b60405161011b959493929190611325565b60405180910390f35b61012c6106a2565b604051610139919061139c565b60405180910390f35b61015c600480360381019061015791906114ec565b6106c8565b005b6101786004803603810190610173919061155b565b61080a565b005b610194600480360381019061018f91906115b7565b610d00565b6040516101a797969594939291906115e4565b60405180910390f35b6101ca60048036038101906101c59190611668565b610eda565b005b600080546101d99061178d565b80601f01602080910402602001604051908101604052809291908181526020018280546102059061178d565b80156102525780601f1061022757610100808354040283529160200191610252565b820191906000526020600020905b81548152906001019060200180831161023557829003601f168201915b505050505081565b600160009054906101000a900473ffffffffffffffffffffffffffffffffffffffff1673ffffffffffffffffffffffffffffffffffffffff163373ffffffffffffffffffffffffffffffffffffffff16146102b457600080fd5b6000600160009054906101000a900473ffffffffffffffffffffffffffffffffffffffff1673ffffffffffffffffffffffffffffffffffffffff16476040516102fc906117ef565b60006040518083038185875af1925050503d8060008114610339576040519150601f19603f3d011682016040523d82523d6000602084013e61033e565b606091505b505090508061034c57600080fd5b50565b60036020528060005260406000206000915090505481565b600460205281600052604060002060205280600052604060002060009150915050806000015490806001016040518060e0016040529081600082015481526020016001820180546103b79061178d565b80601f01602080910402602001604051908101604052809291908181526020018280546103e39061178d565b80156104305780601f1061040557610100808354040283529160200191610430565b820191906000526020600020905b81548152906001019060200180831161041357829003601f168201915b505050505081526020016002820180546104499061178d565b80601f01602080910402602001604051908101604052809291908181526020018280546104759061178d565b80156104c25780601f10610497576101008083540402835291602001916104c2565b820191906000526020600020905b8154815290600101906020018083116104a557829003601f168201915b505050505081526020016003820180546104db9061178d565b80601f01602080910402602001604051908101604052809291908181526020018280546105079061178d565b80156105545780601f1061052957610100808354040283529160200191610554565b820191906000526020600020905b81548152906001019060200180831161053757829003601f168201915b505050505081526020016004820154815260200160058201548152602001600682015481525050908060080154908060090180546105919061178d565b80601f01602080910402602001604051908101604052809291908181526020018280546105bd9061178d565b801561060a5780601f106105df5761010080835404028352916020019161060a565b820191906000526020600020905b8154815290600101906020018083116105ed57829003601f168201915b50505050509080600a01805461061f9061178d565b80601f016020809104026020016040519081016040528092919081815260200182805461064b9061178d565b80156106985780601f1061066d57610100808354040283529160200191610698565b820191906000526020600020905b81548152906001019060200180831161067b57829003601f168201915b5050505050905085565b600160009054906101000a900473ffffffffffffffffffffffffffffffffffffffff1681565b600160009054906101000a900473ffffffffffffffffffffffffffffffffffffffff1673ffffffffffffffffffffffffffffffffffffffff163373ffffffffffffffffffffffffffffffffffffffff161461072257600080fd5b600360008473ffffffffffffffffffffffffffffffffffffffff1673ffffffffffffffffffffffffffffffffffffffff168152602001908152602001600020548211156107a4576040517f08c379a000000000000000000000000000000000000000000000000000000000815260040161079b90611850565b60405180910390fd5b80600460008573ffffffffffffffffffffffffffffffffffffffff1673ffffffffffffffffffffffffffffffffffffffff1681526020019081526020016000206000848152602001908152602001600020600a0190816108049190611a1c565b50505050565b6000600260008481526020019081526020016000206040518060e0016040529081600082015481526020016001820180546108449061178d565b80601f01602080910402602001604051908101604052809291908181526020018280546108709061178d565b80156108bd5780601f10610892576101008083540402835291602001916108bd565b820191906000526020600020905b8154815290600101906020018083116108a057829003601f168201915b505050505081526020016002820180546108d69061178d565b80601f01602080910402602001604051908101604052809291908181526020018280546109029061178d565b801561094f5780601f106109245761010080835404028352916020019161094f565b820191906000526020600020905b81548152906001019060200180831161093257829003601f168201915b505050505081526020016003820180546109689061178d565b80601f01602080910402602001604051908101604052809291908181526020018280546109949061178d565b80156109e15780601f106109b6576101008083540402835291602001916109e1565b820191906000526020600020905b8154815290600101906020018083116109c457829003601f168201915b505050505081526020016004820154815260200160058201548152602001600682015481525050905060008160c0015111610a51576040517f08c379a0000000000000000000000000000000000000000000000000000000008152600401610a4890611b3a565b60405180910390fd5b60006040518060a00160405280428152602001838152602001600181526020018481526020016040518060400160405280600981526020017f636f6d706c6574656400000000000000000000000000000000000000000000008152508152509050600360003373ffffffffffffffffffffffffffffffffffffffff1673ffffffffffffffffffffffffffffffffffffffff1681526020019081526020016000206000815480929190610b0290611b89565b919050555080600460003373ffffffffffffffffffffffffffffffffffffffff1673ffffffffffffffffffffffffffffffffffffffff1681526020019081526020016000206000600360003373ffffffffffffffffffffffffffffffffffffffff1673ffffffffffffffffffffffffffffffffffffffff16815260200190815260200160002054815260200190815260200160002060008201518160000155602082015181600101600082015181600001556020820151816001019081610bc99190611a1c565b506040820151816002019081610bdf9190611a1c565b506060820151816003019081610bf59190611a1c565b506080820151816004015560a0820151816005015560c082015181600601555050604082015181600801556060820151816009019081610c359190611a1c565b50608082015181600a019081610c4b9190611a1c565b5090505060018260c00151610c609190611bd1565b60026000868152602001908152602001600020600601819055507f149b84f345a2529777fc0c790a7d9767c1069d6621069d801ec05488e8779dbd33600360003373ffffffffffffffffffffffffffffffffffffffff1673ffffffffffffffffffffffffffffffffffffffff16815260200190815260200160002054846000015186604051610cf29493929190611c05565b60405180910390a150505050565b6002602052806000526040600020600091509050806000015490806001018054610d299061178d565b80601f0160208091040260200160405190810160405280929190818152602001828054610d559061178d565b8015610da25780601f10610d7757610100808354040283529160200191610da2565b820191906000526020600020905b815481529060010190602001808311610d8557829003601f168201915b505050505090806002018054610db79061178d565b80601f0160208091040260200160405190810160405280929190818152602001828054610de39061178d565b8015610e305780601f10610e0557610100808354040283529160200191610e30565b820191906000526020600020905b815481529060010190602001808311610e1357829003601f168201915b505050505090806003018054610e459061178d565b80601f0160208091040260200160405190810160405280929190818152602001828054610e719061178d565b8015610ebe5780601f10610e9357610100808354040283529160200191610ebe565b820191906000526020600020905b815481529060010190602001808311610ea157829003601f168201915b5050505050908060040154908060050154908060060154905087565b600160009054906101000a900473ffffffffffffffffffffffffffffffffffffffff1673ffffffffffffffffffffffffffffffffffffffff163373ffffffffffffffffffffffffffffffffffffffff1614610f3457600080fd5b60006040518060e0016040528089815260200188815260200187815260200186815260200185815260200184815260200183815250905080600260008a8152602001908152602001600020600082015181600001556020820151816001019081610f9e9190611a1c565b506040820151816002019081610fb49190611a1c565b506060820151816003019081610fca9190611a1c565b506080820151816004015560a0820151816005015560c082015181600601559050507ffdbe2a012c10ec01592653978eaa09b5ca60b143a0e617505b2ebcbd911ec5b887858460405161101f93929190611c51565b60405180910390a15050505050505050565b600081519050919050565b600082825260208201905092915050565b60005b8381101561106b578082015181840152602081019050611050565b60008484015250505050565b6000601f19601f8301169050919050565b600061109382611031565b61109d818561103c565b93506110ad81856020860161104d565b6110b681611077565b840191505092915050565b600060208201905081810360008301526110db8184611088565b905092915050565b6000604051905090565b600080fd5b600080fd5b600073ffffffffffffffffffffffffffffffffffffffff82169050919050565b6000611122826110f7565b9050919050565b61113281611117565b811461113d57600080fd5b50565b60008135905061114f81611129565b92915050565b60006020828403121561116b5761116a6110ed565b5b600061117984828501611140565b91505092915050565b6000819050919050565b61119581611182565b82525050565b60006020820190506111b0600083018461118c565b92915050565b6111bf81611182565b81146111ca57600080fd5b50565b6000813590506111dc816111b6565b92915050565b600080604083850312156111f9576111f86110ed565b5b600061120785828601611140565b9250506020611218858286016111cd565b9150509250929050565b61122b81611182565b82525050565b600082825260208201905092915050565b600061124d82611031565b6112578185611231565b935061126781856020860161104d565b61127081611077565b840191505092915050565b600060e0830160008301516112936000860182611222565b50602083015184820360208601526112ab8282611242565b915050604083015184820360408601526112c58282611242565b915050606083015184820360608601526112df8282611242565b91505060808301516112f46080860182611222565b5060a083015161130760a0860182611222565b5060c083015161131a60c0860182611222565b508091505092915050565b600060a08201905061133a600083018861118c565b818103602083015261134c818761127b565b905061135b604083018661118c565b818103606083015261136d8185611088565b905081810360808301526113818184611088565b90509695505050505050565b61139681611117565b82525050565b60006020820190506113b1600083018461138d565b92915050565b600080fd5b600080fd5b7f4e487b7100000000000000000000000000000000000000000000000000000000600052604160045260246000fd5b6113f982611077565b810181811067ffffffffffffffff82111715611418576114176113c1565b5b80604052505050565b600061142b6110e3565b905061143782826113f0565b919050565b600067ffffffffffffffff821115611457576114566113c1565b5b61146082611077565b9050602081019050919050565b82818337600083830152505050565b600061148f61148a8461143c565b611421565b9050828152602081018484840111156114ab576114aa6113bc565b5b6114b684828561146d565b509392505050565b600082601f8301126114d3576114d26113b7565b5b81356114e384826020860161147c565b91505092915050565b600080600060608486031215611505576115046110ed565b5b600061151386828701611140565b9350506020611524868287016111cd565b925050604084013567ffffffffffffffff811115611545576115446110f2565b5b611551868287016114be565b9150509250925092565b60008060408385031215611572576115716110ed565b5b6000611580858286016111cd565b925050602083013567ffffffffffffffff8111156115a1576115a06110f2565b5b6115ad858286016114be565b9150509250929050565b6000602082840312156115cd576115cc6110ed565b5b60006115db848285016111cd565b91505092915050565b600060e0820190506115f9600083018a61118c565b818103602083015261160b8189611088565b9050818103604083015261161f8188611088565b905081810360608301526116338187611088565b9050611642608083018661118c565b61164f60a083018561118c565b61165c60c083018461118c565b98975050505050505050565b600080600080600080600060e0888a031215611687576116866110ed565b5b60006116958a828b016111cd565b975050602088013567ffffffffffffffff8111156116b6576116b56110f2565b5b6116c28a828b016114be565b965050604088013567ffffffffffffffff8111156116e3576116e26110f2565b5b6116ef8a828b016114be565b955050606088013567ffffffffffffffff8111156117105761170f6110f2565b5b61171c8a828b016114be565b945050608061172d8a828b016111cd565b93505060a061173e8a828b016111cd565b92505060c061174f8a828b016111cd565b91505092959891949750929550565b7f4e487b7100000000000000000000000000000000000000000000000000000000600052602260045260246000fd5b600060028204905060018216806117a557607f821691505b6020821081036117b8576117b761175e565b5b50919050565b600081905092915050565b50565b60006117d96000836117be565b91506117e4826117c9565b600082019050919050565b60006117fa826117cc565b9150819050919050565b7f4f7264657220646f6573206e6f74206578697374000000000000000000000000600082015250565b600061183a60148361103c565b915061184582611804565b602082019050919050565b600060208201905081810360008301526118698161182d565b9050919050565b60008190508160005260206000209050919050565b60006020601f8301049050919050565b600082821b905092915050565b6000600883026118d27fffffffffffffffffffffffffffffffffffffffffffffffffffffffffffffffff82611895565b6118dc8683611895565b95508019841693508086168417925050509392505050565b6000819050919050565b600061191961191461190f84611182565b6118f4565b611182565b9050919050565b6000819050919050565b611933836118fe565b61194761193f82611920565b8484546118a2565b825550505050565b600090565b61195c61194f565b61196781848461192a565b505050565b5b8181101561198b57611980600082611954565b60018101905061196d565b5050565b601f8211156119d0576119a181611870565b6119aa84611885565b810160208510156119b9578190505b6119cd6119c585611885565b83018261196c565b50505b505050565b600082821c905092915050565b60006119f3600019846008026119d5565b1980831691505092915050565b6000611a0c83836119e2565b9150826002028217905092915050565b611a2582611031565b67ffffffffffffffff811115611a3e57611a3d6113c1565b5b611a48825461178d565b611a5382828561198f565b600060209050601f831160018114611a865760008415611a74578287015190505b611a7e8582611a00565b865550611ae6565b601f198416611a9486611870565b60005b82811015611abc57848901518255600182019150602085019450602081019050611a97565b86831015611ad95784890151611ad5601f8916826119e2565b8355505b6001600288020188555050505b505050505050565b7f4974656d206f7574206f662073746f636b000000000000000000000000000000600082015250565b6000611b2460118361103c565b9150611b2f82611aee565b602082019050919050565b60006020820190508181036000830152611b5381611b17565b9050919050565b7f4e487b7100000000000000000000000000000000000000000000000000000000600052601160045260246000fd5b6000611b9482611182565b91507fffffffffffffffffffffffffffffffffffffffffffffffffffffffffffffffff8203611bc657611bc5611b5a565b5b600182019050919050565b6000611bdc82611182565b9150611be783611182565b9250828203905081811115611bff57611bfe611b5a565b5b92915050565b6000608082019050611c1a600083018761138d565b611c27602083018661118c565b611c34604083018561118c565b8181036060830152611c468184611088565b905095945050505050565b60006060820190508181036000830152611c6b8186611088565b9050611c7a602083018561118c565b611c87604083018461118c565b94935050505056fea2646970667358221220987106c49387e42e7f3cf1d93af7fc1ada4e89170ab9f1ded2d11ad801f60e8d64736f6c63430008110033",
  "linkReferences": {},
  "deployedLinkReferences": {}
}